{
  "_format": "hh-sol-artifact-1",
  "contractName": "Admin_and_Parent",
  "sourceName": "contracts/hazirlik.sol",
  "abi": [
    {
      "inputs": [],
      "stateMutability": "nonpayable",
      "type": "constructor"
    },
    {
      "inputs": [
        {
          "internalType": "address payable",
          "name": "_address",
          "type": "address"
        },
        {
          "internalType": "string",
          "name": "name",
          "type": "string"
        },
        {
          "internalType": "string",
          "name": "surname",
          "type": "string"
        }
      ],
      "name": "addParent",
      "outputs": [],
      "stateMutability": "nonpayable",
      "type": "function"
    },
    {
      "inputs": [],
      "name": "getParent",
      "outputs": [
        {
          "components": [
            {
              "internalType": "address payable",
              "name": "_address",
              "type": "address"
            },
            {
              "internalType": "string",
              "name": "name",
              "type": "string"
            },
            {
              "internalType": "string",
              "name": "surname",
              "type": "string"
            },
            {
              "internalType": "address[]",
              "name": "children",
              "type": "address[]"
            }
          ],
          "internalType": "struct Admin_and_Parent.Parent",
          "name": "result",
          "type": "tuple"
        }
      ],
      "stateMutability": "view",
      "type": "function"
    }
  ],
  "bytecode": "0x608060405234801561001057600080fd5b50336000806101000a81548173ffffffffffffffffffffffffffffffffffffffff021916908373ffffffffffffffffffffffffffffffffffffffff160217905550610c2a806100606000396000f3fe608060405234801561001057600080fd5b50600436106100365760003560e01c806380f760211461003b578063baebf68414610059575b600080fd5b610043610075565b604051610050919061066d565b60405180910390f35b610073600480360381019061006e9190610804565b6102da565b005b61007d61041d565b6000600160003373ffffffffffffffffffffffffffffffffffffffff1673ffffffffffffffffffffffffffffffffffffffff1681526020019081526020016000209050806040518060800160405290816000820160009054906101000a900473ffffffffffffffffffffffffffffffffffffffff1673ffffffffffffffffffffffffffffffffffffffff1673ffffffffffffffffffffffffffffffffffffffff168152602001600182018054610132906108be565b80601f016020809104026020016040519081016040528092919081815260200182805461015e906108be565b80156101ab5780601f10610180576101008083540402835291602001916101ab565b820191906000526020600020905b81548152906001019060200180831161018e57829003601f168201915b505050505081526020016002820180546101c4906108be565b80601f01602080910402602001604051908101604052809291908181526020018280546101f0906108be565b801561023d5780601f106102125761010080835404028352916020019161023d565b820191906000526020600020905b81548152906001019060200180831161022057829003601f168201915b50505050508152602001600382018054806020026020016040519081016040528092919081815260200182805480156102cb57602002820191906000526020600020905b8160009054906101000a900473ffffffffffffffffffffffffffffffffffffffff1673ffffffffffffffffffffffffffffffffffffffff1681526020019060010190808311610281575b50505050508152505091505090565b6000600160008573ffffffffffffffffffffffffffffffffffffffff1673ffffffffffffffffffffffffffffffffffffffff1681526020019081526020016000209050600073ffffffffffffffffffffffffffffffffffffffff168160000160009054906101000a900473ffffffffffffffffffffffffffffffffffffffff1673ffffffffffffffffffffffffffffffffffffffff16146103b0576040517f08c379a00000000000000000000000000000000000000000000000000000000081526004016103a79061094c565b60405180910390fd5b838160000160006101000a81548173ffffffffffffffffffffffffffffffffffffffff021916908373ffffffffffffffffffffffffffffffffffffffff160217905550828160010190816104049190610b22565b50818160020190816104169190610b22565b5050505050565b6040518060800160405280600073ffffffffffffffffffffffffffffffffffffffff1681526020016060815260200160608152602001606081525090565b600073ffffffffffffffffffffffffffffffffffffffff82169050919050565b60006104868261045b565b9050919050565b6104968161047b565b82525050565b600081519050919050565b600082825260208201905092915050565b60005b838110156104d65780820151818401526020810190506104bb565b60008484015250505050565b6000601f19601f8301169050919050565b60006104fe8261049c565b61050881856104a7565b93506105188185602086016104b8565b610521816104e2565b840191505092915050565b600081519050919050565b600082825260208201905092915050565b6000819050602082019050919050565b60006105638261045b565b9050919050565b61057381610558565b82525050565b6000610585838361056a565b60208301905092915050565b6000602082019050919050565b60006105a98261052c565b6105b38185610537565b93506105be83610548565b8060005b838110156105ef5781516105d68882610579565b97506105e183610591565b9250506001810190506105c2565b5085935050505092915050565b6000608083016000830151610614600086018261048d565b506020830151848203602086015261062c82826104f3565b9150506040830151848203604086015261064682826104f3565b91505060608301518482036060860152610660828261059e565b9150508091505092915050565b6000602082019050818103600083015261068781846105fc565b905092915050565b6000604051905090565b600080fd5b600080fd5b6106ac8161047b565b81146106b757600080fd5b50565b6000813590506106c9816106a3565b92915050565b600080fd5b600080fd5b7f4e487b7100000000000000000000000000000000000000000000000000000000600052604160045260246000fd5b610711826104e2565b810181811067ffffffffffffffff821117156107305761072f6106d9565b5b80604052505050565b600061074361068f565b905061074f8282610708565b919050565b600067ffffffffffffffff82111561076f5761076e6106d9565b5b610778826104e2565b9050602081019050919050565b82818337600083830152505050565b60006107a76107a284610754565b610739565b9050828152602081018484840111156107c3576107c26106d4565b5b6107ce848285610785565b509392505050565b600082601f8301126107eb576107ea6106cf565b5b81356107fb848260208601610794565b91505092915050565b60008060006060848603121561081d5761081c610699565b5b600061082b868287016106ba565b935050602084013567ffffffffffffffff81111561084c5761084b61069e565b5b610858868287016107d6565b925050604084013567ffffffffffffffff8111156108795761087861069e565b5b610885868287016107d6565b9150509250925092565b7f4e487b7100000000000000000000000000000000000000000000000000000000600052602260045260246000fd5b600060028204905060018216806108d657607f821691505b6020821081036108e9576108e861088f565b5b50919050565b600082825260208201905092915050565b7f506172656e7420616c726561647920696e2073797374656d2e00000000000000600082015250565b60006109366019836108ef565b915061094182610900565b602082019050919050565b6000602082019050818103600083015261096581610929565b9050919050565b60008190508160005260206000209050919050565b60006020601f8301049050919050565b600082821b905092915050565b6000600883026109ce7fffffffffffffffffffffffffffffffffffffffffffffffffffffffffffffffff82610991565b6109d88683610991565b95508019841693508086168417925050509392505050565b6000819050919050565b6000819050919050565b6000610a1f610a1a610a15846109f0565b6109fa565b6109f0565b9050919050565b6000819050919050565b610a3983610a04565b610a4d610a4582610a26565b84845461099e565b825550505050565b600090565b610a62610a55565b610a6d818484610a30565b505050565b5b81811015610a9157610a86600082610a5a565b600181019050610a73565b5050565b601f821115610ad657610aa78161096c565b610ab084610981565b81016020851015610abf578190505b610ad3610acb85610981565b830182610a72565b50505b505050565b600082821c905092915050565b6000610af960001984600802610adb565b1980831691505092915050565b6000610b128383610ae8565b9150826002028217905092915050565b610b2b8261049c565b67ffffffffffffffff811115610b4457610b436106d9565b5b610b4e82546108be565b610b59828285610a95565b600060209050601f831160018114610b8c5760008415610b7a578287015190505b610b848582610b06565b865550610bec565b601f198416610b9a8661096c565b60005b82811015610bc257848901518255600182019150602085019450602081019050610b9d565b86831015610bdf5784890151610bdb601f891682610ae8565b8355505b6001600288020188555050505b50505050505056fea26469706673582212208bf5ffd725d7a95b8c473cdf71a5745343cbccc7ffe42b2d56c4a949acd21d1b64736f6c63430008100033",
  "linkReferences": {},
  "deployedLinkReferences": {}
}