{
  "_format": "hh-sol-artifact-1",
  "contractName": "Eth_Inherit",
  "sourceName": "contracts/eth_inherit.sol",
  "abi": [
    {
      "inputs": [],
      "stateMutability": "nonpayable",
      "type": "constructor"
    },
    {
      "inputs": [
        {
          "internalType": "address payable",
          "name": "childAddress",
          "type": "address"
        },
        {
          "internalType": "string",
          "name": "name",
          "type": "string"
        },
        {
          "internalType": "string",
          "name": "surname",
          "type": "string"
        }
      ],
      "name": "addChild",
      "outputs": [],
      "stateMutability": "nonpayable",
      "type": "function"
    },
    {
      "inputs": [
        {
          "internalType": "address payable",
          "name": "_address",
          "type": "address"
        },
        {
          "internalType": "string",
          "name": "name",
          "type": "string"
        },
        {
          "internalType": "string",
          "name": "surname",
          "type": "string"
        }
      ],
      "name": "addParent",
      "outputs": [],
      "stateMutability": "nonpayable",
      "type": "function"
    },
    {
      "inputs": [],
      "name": "getParent",
      "outputs": [
        {
          "components": [
            {
              "internalType": "address payable",
              "name": "_address",
              "type": "address"
            },
            {
              "internalType": "string",
              "name": "name",
              "type": "string"
            },
            {
              "internalType": "string",
              "name": "surname",
              "type": "string"
            },
            {
              "internalType": "address[]",
              "name": "childrenAddresses",
              "type": "address[]"
            }
          ],
          "internalType": "struct Eth_Inherit.Parent",
          "name": "result",
          "type": "tuple"
        }
      ],
      "stateMutability": "view",
      "type": "function"
    },
    {
      "inputs": [
        {
          "internalType": "address",
          "name": "childAddress",
          "type": "address"
        },
        {
          "internalType": "uint256",
          "name": "releaseTime",
          "type": "uint256"
        },
        {
          "internalType": "uint256",
          "name": "amount",
          "type": "uint256"
        }
      ],
      "name": "sendMoneytoContract",
      "outputs": [],
      "stateMutability": "payable",
      "type": "function"
    }
  ],
  "bytecode": "0x608060405234801561001057600080fd5b50336000806101000a81548173ffffffffffffffffffffffffffffffffffffffff021916908373ffffffffffffffffffffffffffffffffffffffff16021790555061107d806100606000396000f3fe60806040526004361061003f5760003560e01c80636dc6ee1d1461004457806380f760211461006d578063815253c814610098578063baebf684146100b4575b600080fd5b34801561005057600080fd5b5061006b600480360381019061006691906108e3565b6100dd565b005b34801561007957600080fd5b50610082610340565b60405161008f9190610b3d565b60405180910390f35b6100b260048036038101906100ad9190610bc1565b6105a5565b005b3480156100c057600080fd5b506100db60048036038101906100d691906108e3565b6105aa565b005b60003390506000600160008373ffffffffffffffffffffffffffffffffffffffff1673ffffffffffffffffffffffffffffffffffffffff1681526020019081526020016000209050600073ffffffffffffffffffffffffffffffffffffffff168160000160009054906101000a900473ffffffffffffffffffffffffffffffffffffffff1673ffffffffffffffffffffffffffffffffffffffff16036101b8576040517f08c379a00000000000000000000000000000000000000000000000000000000081526004016101af90610c71565b60405180910390fd5b6000600260008773ffffffffffffffffffffffffffffffffffffffff1673ffffffffffffffffffffffffffffffffffffffff1681526020019081526020016000209050600073ffffffffffffffffffffffffffffffffffffffff168160000160009054906101000a900473ffffffffffffffffffffffffffffffffffffffff1673ffffffffffffffffffffffffffffffffffffffff161461028e576040517f08c379a000000000000000000000000000000000000000000000000000000000815260040161028590610cdd565b60405180910390fd5b858160000160006101000a81548173ffffffffffffffffffffffffffffffffffffffff021916908373ffffffffffffffffffffffffffffffffffffffff160217905550848160010190816102e29190610f09565b50838160020190816102f49190610f09565b50828160050160006101000a81548173ffffffffffffffffffffffffffffffffffffffff021916908373ffffffffffffffffffffffffffffffffffffffff160217905550505050505050565b6103486106ed565b6000600160003373ffffffffffffffffffffffffffffffffffffffff1673ffffffffffffffffffffffffffffffffffffffff1681526020019081526020016000209050806040518060800160405290816000820160009054906101000a900473ffffffffffffffffffffffffffffffffffffffff1673ffffffffffffffffffffffffffffffffffffffff1673ffffffffffffffffffffffffffffffffffffffff1681526020016001820180546103fd90610d2c565b80601f016020809104026020016040519081016040528092919081815260200182805461042990610d2c565b80156104765780601f1061044b57610100808354040283529160200191610476565b820191906000526020600020905b81548152906001019060200180831161045957829003601f168201915b5050505050815260200160028201805461048f90610d2c565b80601f01602080910402602001604051908101604052809291908181526020018280546104bb90610d2c565b80156105085780601f106104dd57610100808354040283529160200191610508565b820191906000526020600020905b8154815290600101906020018083116104eb57829003601f168201915b505050505081526020016003820180548060200260200160405190810160405280929190818152602001828054801561059657602002820191906000526020600020905b8160009054906101000a900473ffffffffffffffffffffffffffffffffffffffff1673ffffffffffffffffffffffffffffffffffffffff168152602001906001019080831161054c575b50505050508152505091505090565b505050565b6000600160008573ffffffffffffffffffffffffffffffffffffffff1673ffffffffffffffffffffffffffffffffffffffff1681526020019081526020016000209050600073ffffffffffffffffffffffffffffffffffffffff168160000160009054906101000a900473ffffffffffffffffffffffffffffffffffffffff1673ffffffffffffffffffffffffffffffffffffffff1614610680576040517f08c379a000000000000000000000000000000000000000000000000000000000815260040161067790611027565b60405180910390fd5b838160000160006101000a81548173ffffffffffffffffffffffffffffffffffffffff021916908373ffffffffffffffffffffffffffffffffffffffff160217905550828160010190816106d49190610f09565b50818160020190816106e69190610f09565b5050505050565b6040518060800160405280600073ffffffffffffffffffffffffffffffffffffffff1681526020016060815260200160608152602001606081525090565b6000604051905090565b600080fd5b600080fd5b600073ffffffffffffffffffffffffffffffffffffffff82169050919050565b600061076a8261073f565b9050919050565b61077a8161075f565b811461078557600080fd5b50565b60008135905061079781610771565b92915050565b600080fd5b600080fd5b6000601f19601f8301169050919050565b7f4e487b7100000000000000000000000000000000000000000000000000000000600052604160045260246000fd5b6107f0826107a7565b810181811067ffffffffffffffff8211171561080f5761080e6107b8565b5b80604052505050565b600061082261072b565b905061082e82826107e7565b919050565b600067ffffffffffffffff82111561084e5761084d6107b8565b5b610857826107a7565b9050602081019050919050565b82818337600083830152505050565b600061088661088184610833565b610818565b9050828152602081018484840111156108a2576108a16107a2565b5b6108ad848285610864565b509392505050565b600082601f8301126108ca576108c961079d565b5b81356108da848260208601610873565b91505092915050565b6000806000606084860312156108fc576108fb610735565b5b600061090a86828701610788565b935050602084013567ffffffffffffffff81111561092b5761092a61073a565b5b610937868287016108b5565b925050604084013567ffffffffffffffff8111156109585761095761073a565b5b610964868287016108b5565b9150509250925092565b6109778161075f565b82525050565b600081519050919050565b600082825260208201905092915050565b60005b838110156109b757808201518184015260208101905061099c565b60008484015250505050565b60006109ce8261097d565b6109d88185610988565b93506109e8818560208601610999565b6109f1816107a7565b840191505092915050565b600081519050919050565b600082825260208201905092915050565b6000819050602082019050919050565b6000610a338261073f565b9050919050565b610a4381610a28565b82525050565b6000610a558383610a3a565b60208301905092915050565b6000602082019050919050565b6000610a79826109fc565b610a838185610a07565b9350610a8e83610a18565b8060005b83811015610abf578151610aa68882610a49565b9750610ab183610a61565b925050600181019050610a92565b5085935050505092915050565b6000608083016000830151610ae4600086018261096e565b5060208301518482036020860152610afc82826109c3565b91505060408301518482036040860152610b1682826109c3565b91505060608301518482036060860152610b308282610a6e565b9150508091505092915050565b60006020820190508181036000830152610b578184610acc565b905092915050565b610b6881610a28565b8114610b7357600080fd5b50565b600081359050610b8581610b5f565b92915050565b6000819050919050565b610b9e81610b8b565b8114610ba957600080fd5b50565b600081359050610bbb81610b95565b92915050565b600080600060608486031215610bda57610bd9610735565b5b6000610be886828701610b76565b9350506020610bf986828701610bac565b9250506040610c0a86828701610bac565b9150509250925092565b600082825260208201905092915050565b7f506172656e74206e6f7420696e2073797374656d2e0000000000000000000000600082015250565b6000610c5b601583610c14565b9150610c6682610c25565b602082019050919050565b60006020820190508181036000830152610c8a81610c4e565b9050919050565b7f4368696c6420616c726561647920696e2073797374656d2e0000000000000000600082015250565b6000610cc7601883610c14565b9150610cd282610c91565b602082019050919050565b60006020820190508181036000830152610cf681610cba565b9050919050565b7f4e487b7100000000000000000000000000000000000000000000000000000000600052602260045260246000fd5b60006002820490506001821680610d4457607f821691505b602082108103610d5757610d56610cfd565b5b50919050565b60008190508160005260206000209050919050565b60006020601f8301049050919050565b600082821b905092915050565b600060088302610dbf7fffffffffffffffffffffffffffffffffffffffffffffffffffffffffffffffff82610d82565b610dc98683610d82565b95508019841693508086168417925050509392505050565b6000819050919050565b6000610e06610e01610dfc84610b8b565b610de1565b610b8b565b9050919050565b6000819050919050565b610e2083610deb565b610e34610e2c82610e0d565b848454610d8f565b825550505050565b600090565b610e49610e3c565b610e54818484610e17565b505050565b5b81811015610e7857610e6d600082610e41565b600181019050610e5a565b5050565b601f821115610ebd57610e8e81610d5d565b610e9784610d72565b81016020851015610ea6578190505b610eba610eb285610d72565b830182610e59565b50505b505050565b600082821c905092915050565b6000610ee060001984600802610ec2565b1980831691505092915050565b6000610ef98383610ecf565b9150826002028217905092915050565b610f128261097d565b67ffffffffffffffff811115610f2b57610f2a6107b8565b5b610f358254610d2c565b610f40828285610e7c565b600060209050601f831160018114610f735760008415610f61578287015190505b610f6b8582610eed565b865550610fd3565b601f198416610f8186610d5d565b60005b82811015610fa957848901518255600182019150602085019450602081019050610f84565b86831015610fc65784890151610fc2601f891682610ecf565b8355505b6001600288020188555050505b505050505050565b7f506172656e7420616c726561647920696e2073797374656d2e00000000000000600082015250565b6000611011601983610c14565b915061101c82610fdb565b602082019050919050565b6000602082019050818103600083015261104081611004565b905091905056fea2646970667358221220b4f87042962c3db5209e6fc8982b2541c481219edf5a60edb8730cbf8516ff0864736f6c63430008100033",
  "linkReferences": {},
  "deployedLinkReferences": {}
}