{
  "_format": "hh-sol-artifact-1",
  "contractName": "Eth_Inherit",
  "sourceName": "contracts/eth_inherit.sol",
  "abi": [
    {
      "inputs": [],
      "stateMutability": "nonpayable",
      "type": "constructor"
    },
    {
      "inputs": [
        {
          "internalType": "address payable",
          "name": "childAddress",
          "type": "address"
        },
        {
          "internalType": "string",
          "name": "name",
          "type": "string"
        },
        {
          "internalType": "string",
          "name": "surname",
          "type": "string"
        }
      ],
      "name": "addChild",
      "outputs": [],
      "stateMutability": "nonpayable",
      "type": "function"
    },
    {
      "inputs": [
        {
          "internalType": "address payable",
          "name": "_address",
          "type": "address"
        },
        {
          "internalType": "string",
          "name": "name",
          "type": "string"
        },
        {
          "internalType": "string",
          "name": "surname",
          "type": "string"
        }
      ],
      "name": "addParent",
      "outputs": [],
      "stateMutability": "nonpayable",
      "type": "function"
    },
    {
      "inputs": [],
      "name": "getAllParents",
      "outputs": [
        {
          "components": [
            {
              "internalType": "address payable",
              "name": "_address",
              "type": "address"
            },
            {
              "internalType": "string",
              "name": "name",
              "type": "string"
            },
            {
              "internalType": "string",
              "name": "surname",
              "type": "string"
            },
            {
              "internalType": "address[]",
              "name": "childrenAddresses",
              "type": "address[]"
            },
            {
              "internalType": "bool",
              "name": "isValue",
              "type": "bool"
            },
            {
              "internalType": "enum Eth_Inherit.Roles",
              "name": "role",
              "type": "uint8"
            }
          ],
          "internalType": "struct Eth_Inherit.Parent[]",
          "name": "result",
          "type": "tuple[]"
        }
      ],
      "stateMutability": "view",
      "type": "function"
    },
    {
      "inputs": [],
      "name": "getChild",
      "outputs": [
        {
          "components": [
            {
              "internalType": "address payable",
              "name": "_address",
              "type": "address"
            },
            {
              "internalType": "string",
              "name": "name",
              "type": "string"
            },
            {
              "internalType": "string",
              "name": "surname",
              "type": "string"
            },
            {
              "internalType": "uint256",
              "name": "releaseTime",
              "type": "uint256"
            },
            {
              "internalType": "uint256",
              "name": "balance",
              "type": "uint256"
            },
            {
              "internalType": "address",
              "name": "parentAddress",
              "type": "address"
            },
            {
              "internalType": "bool",
              "name": "isValue",
              "type": "bool"
            },
            {
              "internalType": "enum Eth_Inherit.Roles",
              "name": "role",
              "type": "uint8"
            }
          ],
          "internalType": "struct Eth_Inherit.Child",
          "name": "result",
          "type": "tuple"
        }
      ],
      "stateMutability": "view",
      "type": "function"
    },
    {
      "inputs": [],
      "name": "getParent",
      "outputs": [
        {
          "components": [
            {
              "internalType": "address payable",
              "name": "_address",
              "type": "address"
            },
            {
              "internalType": "string",
              "name": "name",
              "type": "string"
            },
            {
              "internalType": "string",
              "name": "surname",
              "type": "string"
            },
            {
              "internalType": "address[]",
              "name": "childrenAddresses",
              "type": "address[]"
            },
            {
              "internalType": "bool",
              "name": "isValue",
              "type": "bool"
            },
            {
              "internalType": "enum Eth_Inherit.Roles",
              "name": "role",
              "type": "uint8"
            }
          ],
          "internalType": "struct Eth_Inherit.Parent",
          "name": "result",
          "type": "tuple"
        }
      ],
      "stateMutability": "view",
      "type": "function"
    },
    {
      "inputs": [
        {
          "internalType": "address",
          "name": "roleAddress",
          "type": "address"
        }
      ],
      "name": "getRole",
      "outputs": [
        {
          "internalType": "enum Eth_Inherit.Roles",
          "name": "_type",
          "type": "uint8"
        }
      ],
      "stateMutability": "view",
      "type": "function"
    },
    {
      "inputs": [
        {
          "internalType": "address",
          "name": "childAddress",
          "type": "address"
        },
        {
          "internalType": "uint256",
          "name": "releaseTime",
          "type": "uint256"
        }
      ],
      "name": "sendMoneytoContract",
      "outputs": [],
      "stateMutability": "payable",
      "type": "function"
    },
    {
      "inputs": [
        {
          "internalType": "uint256",
          "name": "amount",
          "type": "uint256"
        }
      ],
      "name": "withdrawMoney",
      "outputs": [],
      "stateMutability": "nonpayable",
      "type": "function"
    }
  ],
  "bytecode": "0x608060405234801561001057600080fd5b50336000806101000a81548173ffffffffffffffffffffffffffffffffffffffff021916908373ffffffffffffffffffffffffffffffffffffffff160217905550612710806100606000396000f3fe60806040526004361061007b5760003560e01c80636eec3ed01161004e5780636eec3ed01461013a57806380f7602114610156578063baebf68414610181578063c8a4406e146101aa5761007b565b80632a43f3381461008057806344276733146100ab57806354876921146100e85780636dc6ee1d14610111575b600080fd5b34801561008c57600080fd5b506100956101d5565b6040516100a29190611a56565b60405180910390f35b3480156100b757600080fd5b506100d260048036038101906100cd9190611ab8565b61046d565b6040516100df9190611af4565b60405180910390f35b3480156100f457600080fd5b5061010f600480360381019061010a9190611b3b565b610594565b005b34801561011d57600080fd5b5061013860048036038101906101339190611cc9565b6106b6565b005b610154600480360381019061014f9190611d54565b610a2a565b005b34801561016257600080fd5b5061016b610a8a565b6040516101789190611eda565b60405180910390f35b34801561018d57600080fd5b506101a860048036038101906101a39190611cc9565b611085565b005b3480156101b657600080fd5b506101bf611326565b6040516101cc9190612055565b60405180910390f35b6101dd61171d565b6000600260003373ffffffffffffffffffffffffffffffffffffffff1673ffffffffffffffffffffffffffffffffffffffff168152602001908152602001600020905080604051806101000160405290816000820160009054906101000a900473ffffffffffffffffffffffffffffffffffffffff1673ffffffffffffffffffffffffffffffffffffffff1673ffffffffffffffffffffffffffffffffffffffff168152602001600182018054610293906120a6565b80601f01602080910402602001604051908101604052809291908181526020018280546102bf906120a6565b801561030c5780601f106102e15761010080835404028352916020019161030c565b820191906000526020600020905b8154815290600101906020018083116102ef57829003601f168201915b50505050508152602001600282018054610325906120a6565b80601f0160208091040260200160405190810160405280929190818152602001828054610351906120a6565b801561039e5780601f106103735761010080835404028352916020019161039e565b820191906000526020600020905b81548152906001019060200180831161038157829003601f168201915b5050505050815260200160038201548152602001600482015481526020016005820160009054906101000a900473ffffffffffffffffffffffffffffffffffffffff1673ffffffffffffffffffffffffffffffffffffffff1673ffffffffffffffffffffffffffffffffffffffff1681526020016005820160149054906101000a900460ff161515151581526020016005820160159054906101000a900460ff16600381111561045157610450611928565b5b600381111561046357610462611928565b5b8152505091505090565b60008060009054906101000a900473ffffffffffffffffffffffffffffffffffffffff1673ffffffffffffffffffffffffffffffffffffffff168273ffffffffffffffffffffffffffffffffffffffff16036104cc576000905061058f565b600160008373ffffffffffffffffffffffffffffffffffffffff1673ffffffffffffffffffffffffffffffffffffffff16815260200190815260200160002060040160009054906101000a900460ff161561052a576001905061058e565b600260008373ffffffffffffffffffffffffffffffffffffffff1673ffffffffffffffffffffffffffffffffffffffff16815260200190815260200160002060050160149054906101000a900460ff1615610588576002905061058d565b600390505b5b5b919050565b600033905060006105a48261046d565b9050600160038111156105ba576105b9611928565b5b8160038111156105cd576105cc611928565b5b03610687576000808373ffffffffffffffffffffffffffffffffffffffff16856040516105f990612108565b60006040518083038185875af1925050503d8060008114610636576040519150601f19603f3d011682016040523d82523d6000602084013e61063b565b606091505b509150915081610680576040517f08c379a00000000000000000000000000000000000000000000000000000000081526004016106779061217a565b60405180910390fd5b50506106b1565b6002600381111561069b5761069a611928565b5b8160038111156106ae576106ad611928565b5b50505b505050565b600160038111156106ca576106c9611928565b5b6106d33361046d565b60038111156106e5576106e4611928565b5b14610725576040517f08c379a000000000000000000000000000000000000000000000000000000000815260040161071c906121e6565b60405180910390fd5b6000339050600160008273ffffffffffffffffffffffffffffffffffffffff1673ffffffffffffffffffffffffffffffffffffffff16815260200190815260200160002060040160009054906101000a900460ff166107b9576040517f08c379a00000000000000000000000000000000000000000000000000000000081526004016107b090612252565b60405180910390fd5b600260008573ffffffffffffffffffffffffffffffffffffffff1673ffffffffffffffffffffffffffffffffffffffff16815260200190815260200160002060050160149054906101000a900460ff1615610849576040517f08c379a0000000000000000000000000000000000000000000000000000000008152600401610840906122be565b60405180910390fd5b6000600260008673ffffffffffffffffffffffffffffffffffffffff1673ffffffffffffffffffffffffffffffffffffffff1681526020019081526020016000209050848160000160006101000a81548173ffffffffffffffffffffffffffffffffffffffff021916908373ffffffffffffffffffffffffffffffffffffffff160217905550838160010190816108e0919061248a565b50828160020190816108f2919061248a565b50818160050160006101000a81548173ffffffffffffffffffffffffffffffffffffffff021916908373ffffffffffffffffffffffffffffffffffffffff16021790555060018160050160146101000a81548160ff02191690831515021790555060028160050160156101000a81548160ff0219169083600381111561097b5761097a611928565b5b0217905550600160008373ffffffffffffffffffffffffffffffffffffffff1673ffffffffffffffffffffffffffffffffffffffff168152602001908152602001600020600301859080600181540180825580915050600190039060005260206000200160009091909190916101000a81548173ffffffffffffffffffffffffffffffffffffffff021916908373ffffffffffffffffffffffffffffffffffffffff1602179055505050505050565b60003390506000600260008573ffffffffffffffffffffffffffffffffffffffff1673ffffffffffffffffffffffffffffffffffffffff168152602001908152602001600020905082816003018190555034816004018190555050505050565b610a926117a2565b60016003811115610aa657610aa5611928565b5b610aaf3361046d565b6003811115610ac157610ac0611928565b5b03610d7557600160003373ffffffffffffffffffffffffffffffffffffffff1673ffffffffffffffffffffffffffffffffffffffff1681526020019081526020016000206040518060c00160405290816000820160009054906101000a900473ffffffffffffffffffffffffffffffffffffffff1673ffffffffffffffffffffffffffffffffffffffff1673ffffffffffffffffffffffffffffffffffffffff168152602001600182018054610b76906120a6565b80601f0160208091040260200160405190810160405280929190818152602001828054610ba2906120a6565b8015610bef5780601f10610bc457610100808354040283529160200191610bef565b820191906000526020600020905b815481529060010190602001808311610bd257829003601f168201915b50505050508152602001600282018054610c08906120a6565b80601f0160208091040260200160405190810160405280929190818152602001828054610c34906120a6565b8015610c815780601f10610c5657610100808354040283529160200191610c81565b820191906000526020600020905b815481529060010190602001808311610c6457829003601f168201915b5050505050815260200160038201805480602002602001604051908101604052809291908181526020018280548015610d0f57602002820191906000526020600020905b8160009054906101000a900473ffffffffffffffffffffffffffffffffffffffff1673ffffffffffffffffffffffffffffffffffffffff1681526020019060010190808311610cc5575b505050505081526020016004820160009054906101000a900460ff161515151581526020016004820160019054906101000a900460ff166003811115610d5857610d57611928565b5b6003811115610d6a57610d69611928565b5b815250509050611082565b60016000600260003373ffffffffffffffffffffffffffffffffffffffff1673ffffffffffffffffffffffffffffffffffffffff16815260200190815260200160002060050160009054906101000a900473ffffffffffffffffffffffffffffffffffffffff1673ffffffffffffffffffffffffffffffffffffffff1673ffffffffffffffffffffffffffffffffffffffff1681526020019081526020016000206040518060c00160405290816000820160009054906101000a900473ffffffffffffffffffffffffffffffffffffffff1673ffffffffffffffffffffffffffffffffffffffff1673ffffffffffffffffffffffffffffffffffffffff168152602001600182018054610e87906120a6565b80601f0160208091040260200160405190810160405280929190818152602001828054610eb3906120a6565b8015610f005780601f10610ed557610100808354040283529160200191610f00565b820191906000526020600020905b815481529060010190602001808311610ee357829003601f168201915b50505050508152602001600282018054610f19906120a6565b80601f0160208091040260200160405190810160405280929190818152602001828054610f45906120a6565b8015610f925780601f10610f6757610100808354040283529160200191610f92565b820191906000526020600020905b815481529060010190602001808311610f7557829003601f168201915b505050505081526020016003820180548060200260200160405190810160405280929190818152602001828054801561102057602002820191906000526020600020905b8160009054906101000a900473ffffffffffffffffffffffffffffffffffffffff1673ffffffffffffffffffffffffffffffffffffffff1681526020019060010190808311610fd6575b505050505081526020016004820160009054906101000a900460ff161515151581526020016004820160019054906101000a900460ff16600381111561106957611068611928565b5b600381111561107b5761107a611928565b5b8152505090505b90565b6002600381111561109957611098611928565b5b6110a23361046d565b60038111156110b4576110b3611928565b5b141580156110ef5750600160038111156110d1576110d0611928565b5b6110da3361046d565b60038111156110ec576110eb611928565b5b14155b6110f857600080fd5b6000600160008573ffffffffffffffffffffffffffffffffffffffff1673ffffffffffffffffffffffffffffffffffffffff1681526020019081526020016000209050600073ffffffffffffffffffffffffffffffffffffffff16600160008673ffffffffffffffffffffffffffffffffffffffff1673ffffffffffffffffffffffffffffffffffffffff16815260200190815260200160002060000160009054906101000a900473ffffffffffffffffffffffffffffffffffffffff1673ffffffffffffffffffffffffffffffffffffffff160361120c576040517f08c379a0000000000000000000000000000000000000000000000000000000008152600401611203906125a8565b60405180910390fd5b838160000160006101000a81548173ffffffffffffffffffffffffffffffffffffffff021916908373ffffffffffffffffffffffffffffffffffffffff16021790555082816001019081611260919061248a565b5081816002019081611272919061248a565b5060018160040160006101000a81548160ff02191690831515021790555060018160040160016101000a81548160ff021916908360038111156112b8576112b7611928565b5b02179055506003849080600181540180825580915050600190039060005260206000200160009091909190916101000a81548173ffffffffffffffffffffffffffffffffffffffff021916908373ffffffffffffffffffffffffffffffffffffffff16021790555050505050565b60606000600381111561133c5761133b611928565b5b6113453361046d565b600381111561135757611356611928565b5b14611397576040517f08c379a000000000000000000000000000000000000000000000000000000000815260040161138e90612614565b60405180910390fd5b60038054905067ffffffffffffffff8111156113b6576113b5611b9e565b5b6040519080825280602002602001820160405280156113ef57816020015b6113dc6117a2565b8152602001906001900390816113d45790505b50905060005b60038054905081101561171957600160006003838154811061141a57611419612634565b5b9060005260206000200160009054906101000a900473ffffffffffffffffffffffffffffffffffffffff1673ffffffffffffffffffffffffffffffffffffffff1673ffffffffffffffffffffffffffffffffffffffff1681526020019081526020016000206040518060c00160405290816000820160009054906101000a900473ffffffffffffffffffffffffffffffffffffffff1673ffffffffffffffffffffffffffffffffffffffff1673ffffffffffffffffffffffffffffffffffffffff1681526020016001820180546114f0906120a6565b80601f016020809104026020016040519081016040528092919081815260200182805461151c906120a6565b80156115695780601f1061153e57610100808354040283529160200191611569565b820191906000526020600020905b81548152906001019060200180831161154c57829003601f168201915b50505050508152602001600282018054611582906120a6565b80601f01602080910402602001604051908101604052809291908181526020018280546115ae906120a6565b80156115fb5780601f106115d0576101008083540402835291602001916115fb565b820191906000526020600020905b8154815290600101906020018083116115de57829003601f168201915b505050505081526020016003820180548060200260200160405190810160405280929190818152602001828054801561168957602002820191906000526020600020905b8160009054906101000a900473ffffffffffffffffffffffffffffffffffffffff1673ffffffffffffffffffffffffffffffffffffffff168152602001906001019080831161163f575b505050505081526020016004820160009054906101000a900460ff161515151581526020016004820160019054906101000a900460ff1660038111156116d2576116d1611928565b5b60038111156116e4576116e3611928565b5b815250508282815181106116fb576116fa612634565b5b6020026020010181905250808061171190612692565b9150506113f5565b5090565b604051806101000160405280600073ffffffffffffffffffffffffffffffffffffffff16815260200160608152602001606081526020016000815260200160008152602001600073ffffffffffffffffffffffffffffffffffffffff1681526020016000151581526020016000600381111561179c5761179b611928565b5b81525090565b6040518060c00160405280600073ffffffffffffffffffffffffffffffffffffffff168152602001606081526020016060815260200160608152602001600015158152602001600060038111156117fc576117fb611928565b5b81525090565b600073ffffffffffffffffffffffffffffffffffffffff82169050919050565b600061182d82611802565b9050919050565b61183d81611822565b82525050565b600081519050919050565b600082825260208201905092915050565b60005b8381101561187d578082015181840152602081019050611862565b60008484015250505050565b6000601f19601f8301169050919050565b60006118a582611843565b6118af818561184e565b93506118bf81856020860161185f565b6118c881611889565b840191505092915050565b6000819050919050565b6118e6816118d3565b82525050565b60006118f782611802565b9050919050565b611907816118ec565b82525050565b60008115159050919050565b6119228161190d565b82525050565b7f4e487b7100000000000000000000000000000000000000000000000000000000600052602160045260246000fd5b6004811061196857611967611928565b5b50565b600081905061197982611957565b919050565b60006119898261196b565b9050919050565b6119998161197e565b82525050565b6000610100830160008301516119b86000860182611834565b50602083015184820360208601526119d0828261189a565b915050604083015184820360408601526119ea828261189a565b91505060608301516119ff60608601826118dd565b506080830151611a1260808601826118dd565b5060a0830151611a2560a08601826118fe565b5060c0830151611a3860c0860182611919565b5060e0830151611a4b60e0860182611990565b508091505092915050565b60006020820190508181036000830152611a70818461199f565b905092915050565b6000604051905090565b600080fd5b600080fd5b611a95816118ec565b8114611aa057600080fd5b50565b600081359050611ab281611a8c565b92915050565b600060208284031215611ace57611acd611a82565b5b6000611adc84828501611aa3565b91505092915050565b611aee8161197e565b82525050565b6000602082019050611b096000830184611ae5565b92915050565b611b18816118d3565b8114611b2357600080fd5b50565b600081359050611b3581611b0f565b92915050565b600060208284031215611b5157611b50611a82565b5b6000611b5f84828501611b26565b91505092915050565b611b7181611822565b8114611b7c57600080fd5b50565b600081359050611b8e81611b68565b92915050565b600080fd5b600080fd5b7f4e487b7100000000000000000000000000000000000000000000000000000000600052604160045260246000fd5b611bd682611889565b810181811067ffffffffffffffff82111715611bf557611bf4611b9e565b5b80604052505050565b6000611c08611a78565b9050611c148282611bcd565b919050565b600067ffffffffffffffff821115611c3457611c33611b9e565b5b611c3d82611889565b9050602081019050919050565b82818337600083830152505050565b6000611c6c611c6784611c19565b611bfe565b905082815260208101848484011115611c8857611c87611b99565b5b611c93848285611c4a565b509392505050565b600082601f830112611cb057611caf611b94565b5b8135611cc0848260208601611c59565b91505092915050565b600080600060608486031215611ce257611ce1611a82565b5b6000611cf086828701611b7f565b935050602084013567ffffffffffffffff811115611d1157611d10611a87565b5b611d1d86828701611c9b565b925050604084013567ffffffffffffffff811115611d3e57611d3d611a87565b5b611d4a86828701611c9b565b9150509250925092565b60008060408385031215611d6b57611d6a611a82565b5b6000611d7985828601611aa3565b9250506020611d8a85828601611b26565b9150509250929050565b600081519050919050565b600082825260208201905092915050565b6000819050602082019050919050565b6000611dcc83836118fe565b60208301905092915050565b6000602082019050919050565b6000611df082611d94565b611dfa8185611d9f565b9350611e0583611db0565b8060005b83811015611e36578151611e1d8882611dc0565b9750611e2883611dd8565b925050600181019050611e09565b5085935050505092915050565b600060c083016000830151611e5b6000860182611834565b5060208301518482036020860152611e73828261189a565b91505060408301518482036040860152611e8d828261189a565b91505060608301518482036060860152611ea78282611de5565b9150506080830151611ebc6080860182611919565b5060a0830151611ecf60a0860182611990565b508091505092915050565b60006020820190508181036000830152611ef48184611e43565b905092915050565b600081519050919050565b600082825260208201905092915050565b6000819050602082019050919050565b600060c083016000830151611f406000860182611834565b5060208301518482036020860152611f58828261189a565b91505060408301518482036040860152611f72828261189a565b91505060608301518482036060860152611f8c8282611de5565b9150506080830151611fa16080860182611919565b5060a0830151611fb460a0860182611990565b508091505092915050565b6000611fcb8383611f28565b905092915050565b6000602082019050919050565b6000611feb82611efc565b611ff58185611f07565b93508360208202850161200785611f18565b8060005b8581101561204357848403895281516120248582611fbf565b945061202f83611fd3565b925060208a0199505060018101905061200b565b50829750879550505050505092915050565b6000602082019050818103600083015261206f8184611fe0565b905092915050565b7f4e487b7100000000000000000000000000000000000000000000000000000000600052602260045260246000fd5b600060028204905060018216806120be57607f821691505b6020821081036120d1576120d0612077565b5b50919050565b600081905092915050565b50565b60006120f26000836120d7565b91506120fd826120e2565b600082019050919050565b6000612113826120e5565b9150819050919050565b600082825260208201905092915050565b7f4661696c656420746f2073656e64204574686572000000000000000000000000600082015250565b600061216460148361211d565b915061216f8261212e565b602082019050919050565b6000602082019050818103600083015261219381612157565b9050919050565b7f596f7520617265206e6f74206120706172656e742e0000000000000000000000600082015250565b60006121d060158361211d565b91506121db8261219a565b602082019050919050565b600060208201905081810360008301526121ff816121c3565b9050919050565b7f506172656e74206e6f7420696e2073797374656d2e0000000000000000000000600082015250565b600061223c60158361211d565b915061224782612206565b602082019050919050565b6000602082019050818103600083015261226b8161222f565b9050919050565b7f4368696c6420616c726561647920696e2073797374656d2e0000000000000000600082015250565b60006122a860188361211d565b91506122b382612272565b602082019050919050565b600060208201905081810360008301526122d78161229b565b9050919050565b60008190508160005260206000209050919050565b60006020601f8301049050919050565b600082821b905092915050565b6000600883026123407fffffffffffffffffffffffffffffffffffffffffffffffffffffffffffffffff82612303565b61234a8683612303565b95508019841693508086168417925050509392505050565b6000819050919050565b600061238761238261237d846118d3565b612362565b6118d3565b9050919050565b6000819050919050565b6123a18361236c565b6123b56123ad8261238e565b848454612310565b825550505050565b600090565b6123ca6123bd565b6123d5818484612398565b505050565b5b818110156123f9576123ee6000826123c2565b6001810190506123db565b5050565b601f82111561243e5761240f816122de565b612418846122f3565b81016020851015612427578190505b61243b612433856122f3565b8301826123da565b50505b505050565b600082821c905092915050565b600061246160001984600802612443565b1980831691505092915050565b600061247a8383612450565b9150826002028217905092915050565b61249382611843565b67ffffffffffffffff8111156124ac576124ab611b9e565b5b6124b682546120a6565b6124c18282856123fd565b600060209050601f8311600181146124f457600084156124e2578287015190505b6124ec858261246e565b865550612554565b601f198416612502866122de565b60005b8281101561252a57848901518255600182019150602085019450602081019050612505565b868310156125475784890151612543601f891682612450565b8355505b6001600288020188555050505b505050505050565b7f506172656e7420616c726561647920696e2073797374656d2e00000000000000600082015250565b600061259260198361211d565b915061259d8261255c565b602082019050919050565b600060208201905081810360008301526125c181612585565b9050919050565b7f596f7520617265206e6f7420616e2061646d696e2e0000000000000000000000600082015250565b60006125fe60158361211d565b9150612609826125c8565b602082019050919050565b6000602082019050818103600083015261262d816125f1565b9050919050565b7f4e487b7100000000000000000000000000000000000000000000000000000000600052603260045260246000fd5b7f4e487b7100000000000000000000000000000000000000000000000000000000600052601160045260246000fd5b600061269d826118d3565b91507fffffffffffffffffffffffffffffffffffffffffffffffffffffffffffffffff82036126cf576126ce612663565b5b60018201905091905056fea2646970667358221220c083b6abd9788b96410aecbd3c6f45cef7f0d672d1f26f9a944748cb296c1b9f64736f6c63430008100033",
  "linkReferences": {},
  "deployedLinkReferences": {}
}