{
  "_format": "hh-sol-artifact-1",
  "contractName": "Eth_Inherit",
  "sourceName": "contracts/eth_inherit.sol",
  "abi": [
    {
      "inputs": [],
      "stateMutability": "nonpayable",
      "type": "constructor"
    },
    {
      "inputs": [
        {
          "internalType": "address payable",
          "name": "childAddress",
          "type": "address"
        },
        {
          "internalType": "string",
          "name": "name",
          "type": "string"
        },
        {
          "internalType": "string",
          "name": "surname",
          "type": "string"
        }
      ],
      "name": "addChild",
      "outputs": [],
      "stateMutability": "nonpayable",
      "type": "function"
    },
    {
      "inputs": [
        {
          "internalType": "address payable",
          "name": "_address",
          "type": "address"
        },
        {
          "internalType": "string",
          "name": "name",
          "type": "string"
        },
        {
          "internalType": "string",
          "name": "surname",
          "type": "string"
        }
      ],
      "name": "addParent",
      "outputs": [],
      "stateMutability": "nonpayable",
      "type": "function"
    },
    {
      "inputs": [],
      "name": "getChild",
      "outputs": [
        {
          "components": [
            {
              "internalType": "address payable",
              "name": "_address",
              "type": "address"
            },
            {
              "internalType": "string",
              "name": "name",
              "type": "string"
            },
            {
              "internalType": "string",
              "name": "surname",
              "type": "string"
            },
            {
              "internalType": "uint256",
              "name": "releaseTime",
              "type": "uint256"
            },
            {
              "internalType": "uint256",
              "name": "balance",
              "type": "uint256"
            },
            {
              "internalType": "address",
              "name": "parentAddress",
              "type": "address"
            },
            {
              "internalType": "bool",
              "name": "isValue",
              "type": "bool"
            }
          ],
          "internalType": "struct Eth_Inherit.Child",
          "name": "result",
          "type": "tuple"
        }
      ],
      "stateMutability": "view",
      "type": "function"
    },
    {
      "inputs": [],
      "name": "getParent",
      "outputs": [
        {
          "components": [
            {
              "internalType": "address payable",
              "name": "_address",
              "type": "address"
            },
            {
              "internalType": "string",
              "name": "name",
              "type": "string"
            },
            {
              "internalType": "string",
              "name": "surname",
              "type": "string"
            },
            {
              "internalType": "address[]",
              "name": "childrenAddresses",
              "type": "address[]"
            },
            {
              "internalType": "bool",
              "name": "isValue",
              "type": "bool"
            }
          ],
          "internalType": "struct Eth_Inherit.Parent",
          "name": "result",
          "type": "tuple"
        }
      ],
      "stateMutability": "view",
      "type": "function"
    },
    {
      "inputs": [
        {
          "internalType": "address",
          "name": "roleAddress",
          "type": "address"
        }
      ],
      "name": "getRole",
      "outputs": [
        {
          "internalType": "enum Eth_Inherit.Roles",
          "name": "_type",
          "type": "uint8"
        }
      ],
      "stateMutability": "view",
      "type": "function"
    },
    {
      "inputs": [
        {
          "internalType": "address",
          "name": "childAddress",
          "type": "address"
        },
        {
          "internalType": "uint256",
          "name": "releaseTime",
          "type": "uint256"
        },
        {
          "internalType": "uint256",
          "name": "amount",
          "type": "uint256"
        }
      ],
      "name": "sendMoneytoContract",
      "outputs": [],
      "stateMutability": "payable",
      "type": "function"
    },
    {
      "inputs": [
        {
          "internalType": "uint256",
          "name": "amount",
          "type": "uint256"
        }
      ],
      "name": "withdrawMoney",
      "outputs": [],
      "stateMutability": "nonpayable",
      "type": "function"
    }
  ],
  "bytecode": "0x608060405234801561001057600080fd5b50336000806101000a81548173ffffffffffffffffffffffffffffffffffffffff021916908373ffffffffffffffffffffffffffffffffffffffff160217905550611953806100606000396000f3fe6080604052600436106100705760003560e01c80636dc6ee1d1161004e5780636dc6ee1d1461010657806380f760211461012f578063815253c81461015a578063baebf6841461017657610070565b80632a43f3381461007557806344276733146100a057806354876921146100dd575b600080fd5b34801561008157600080fd5b5061008a61019f565b6040516100979190610f2a565b60405180910390f35b3480156100ac57600080fd5b506100c760048036038101906100c29190610f8c565b6103fb565b6040516100d49190611030565b60405180910390f35b3480156100e957600080fd5b5061010460048036038101906100ff9190611077565b610518565b005b34801561011257600080fd5b5061012d60048036038101906101289190611205565b610639565b005b34801561013b57600080fd5b5061014461086e565b60405161015191906113c3565b60405180910390f35b610174600480360381019061016f91906113e5565b610aee565b005b34801561018257600080fd5b5061019d60048036038101906101989190611205565b610b4f565b005b6101a7610caf565b6000600260003373ffffffffffffffffffffffffffffffffffffffff1673ffffffffffffffffffffffffffffffffffffffff1681526020019081526020016000209050806040518060e00160405290816000820160009054906101000a900473ffffffffffffffffffffffffffffffffffffffff1673ffffffffffffffffffffffffffffffffffffffff1673ffffffffffffffffffffffffffffffffffffffff16815260200160018201805461025c90611467565b80601f016020809104026020016040519081016040528092919081815260200182805461028890611467565b80156102d55780601f106102aa576101008083540402835291602001916102d5565b820191906000526020600020905b8154815290600101906020018083116102b857829003601f168201915b505050505081526020016002820180546102ee90611467565b80601f016020809104026020016040519081016040528092919081815260200182805461031a90611467565b80156103675780601f1061033c57610100808354040283529160200191610367565b820191906000526020600020905b81548152906001019060200180831161034a57829003601f168201915b5050505050815260200160038201548152602001600482015481526020016005820160009054906101000a900473ffffffffffffffffffffffffffffffffffffffff1673ffffffffffffffffffffffffffffffffffffffff1673ffffffffffffffffffffffffffffffffffffffff1681526020016005820160149054906101000a900460ff16151515158152505091505090565b6000600160008373ffffffffffffffffffffffffffffffffffffffff1673ffffffffffffffffffffffffffffffffffffffff16815260200190815260200160002060040160009054906101000a900460ff161561045b5760019050610513565b600260008373ffffffffffffffffffffffffffffffffffffffff1673ffffffffffffffffffffffffffffffffffffffff16815260200190815260200160002060050160149054906101000a900460ff16156104b95760029050610512565b60008054906101000a900473ffffffffffffffffffffffffffffffffffffffff1673ffffffffffffffffffffffffffffffffffffffff168273ffffffffffffffffffffffffffffffffffffffff160361051157600090505b5b5b919050565b60003390506000610528826103fb565b90506001600281111561053e5761053d610fb9565b5b81600281111561055157610550610fb9565b5b0361060b576000808373ffffffffffffffffffffffffffffffffffffffff168560405161057d906114c9565b60006040518083038185875af1925050503d80600081146105ba576040519150601f19603f3d011682016040523d82523d6000602084013e6105bf565b606091505b509150915081610604576040517f08c379a00000000000000000000000000000000000000000000000000000000081526004016105fb9061153b565b60405180910390fd5b5050610634565b60028081111561061e5761061d610fb9565b5b81600281111561063157610630610fb9565b5b50505b505050565b6000339050600160008273ffffffffffffffffffffffffffffffffffffffff1673ffffffffffffffffffffffffffffffffffffffff16815260200190815260200160002060040160009054906101000a900460ff166106cd576040517f08c379a00000000000000000000000000000000000000000000000000000000081526004016106c4906115a7565b60405180910390fd5b600260008573ffffffffffffffffffffffffffffffffffffffff1673ffffffffffffffffffffffffffffffffffffffff16815260200190815260200160002060050160149054906101000a900460ff161561075d576040517f08c379a000000000000000000000000000000000000000000000000000000000815260040161075490611613565b60405180910390fd5b6000600260008673ffffffffffffffffffffffffffffffffffffffff1673ffffffffffffffffffffffffffffffffffffffff1681526020019081526020016000209050848160000160006101000a81548173ffffffffffffffffffffffffffffffffffffffff021916908373ffffffffffffffffffffffffffffffffffffffff160217905550838160010190816107f491906117df565b508281600201908161080691906117df565b50818160050160006101000a81548173ffffffffffffffffffffffffffffffffffffffff021916908373ffffffffffffffffffffffffffffffffffffffff16021790555060018160050160146101000a81548160ff0219169083151502179055505050505050565b610876610d1a565b6000600160003373ffffffffffffffffffffffffffffffffffffffff1673ffffffffffffffffffffffffffffffffffffffff1681526020019081526020016000209050806040518060a00160405290816000820160009054906101000a900473ffffffffffffffffffffffffffffffffffffffff1673ffffffffffffffffffffffffffffffffffffffff1673ffffffffffffffffffffffffffffffffffffffff16815260200160018201805461092b90611467565b80601f016020809104026020016040519081016040528092919081815260200182805461095790611467565b80156109a45780601f10610979576101008083540402835291602001916109a4565b820191906000526020600020905b81548152906001019060200180831161098757829003601f168201915b505050505081526020016002820180546109bd90611467565b80601f01602080910402602001604051908101604052809291908181526020018280546109e990611467565b8015610a365780601f10610a0b57610100808354040283529160200191610a36565b820191906000526020600020905b815481529060010190602001808311610a1957829003601f168201915b5050505050815260200160038201805480602002602001604051908101604052809291908181526020018280548015610ac457602002820191906000526020600020905b8160009054906101000a900473ffffffffffffffffffffffffffffffffffffffff1673ffffffffffffffffffffffffffffffffffffffff1681526020019060010190808311610a7a575b505050505081526020016004820160009054906101000a900460ff16151515158152505091505090565b60003390506000600260008673ffffffffffffffffffffffffffffffffffffffff1673ffffffffffffffffffffffffffffffffffffffff16815260200190815260200160002090508381600301819055508281600401819055505050505050565b6000600160008573ffffffffffffffffffffffffffffffffffffffff1673ffffffffffffffffffffffffffffffffffffffff1681526020019081526020016000209050600073ffffffffffffffffffffffffffffffffffffffff168160000160009054906101000a900473ffffffffffffffffffffffffffffffffffffffff1673ffffffffffffffffffffffffffffffffffffffff1614610c25576040517f08c379a0000000000000000000000000000000000000000000000000000000008152600401610c1c906118fd565b60405180910390fd5b838160000160006101000a81548173ffffffffffffffffffffffffffffffffffffffff021916908373ffffffffffffffffffffffffffffffffffffffff16021790555082816001019081610c7991906117df565b5081816002019081610c8b91906117df565b5060018160040160006101000a81548160ff02191690831515021790555050505050565b6040518060e00160405280600073ffffffffffffffffffffffffffffffffffffffff16815260200160608152602001606081526020016000815260200160008152602001600073ffffffffffffffffffffffffffffffffffffffff1681526020016000151581525090565b6040518060a00160405280600073ffffffffffffffffffffffffffffffffffffffff1681526020016060815260200160608152602001606081526020016000151581525090565b600073ffffffffffffffffffffffffffffffffffffffff82169050919050565b6000610d8c82610d61565b9050919050565b610d9c81610d81565b82525050565b600081519050919050565b600082825260208201905092915050565b60005b83811015610ddc578082015181840152602081019050610dc1565b60008484015250505050565b6000601f19601f8301169050919050565b6000610e0482610da2565b610e0e8185610dad565b9350610e1e818560208601610dbe565b610e2781610de8565b840191505092915050565b6000819050919050565b610e4581610e32565b82525050565b6000610e5682610d61565b9050919050565b610e6681610e4b565b82525050565b60008115159050919050565b610e8181610e6c565b82525050565b600060e083016000830151610e9f6000860182610d93565b5060208301518482036020860152610eb78282610df9565b91505060408301518482036040860152610ed18282610df9565b9150506060830151610ee66060860182610e3c565b506080830151610ef96080860182610e3c565b5060a0830151610f0c60a0860182610e5d565b5060c0830151610f1f60c0860182610e78565b508091505092915050565b60006020820190508181036000830152610f448184610e87565b905092915050565b6000604051905090565b600080fd5b600080fd5b610f6981610e4b565b8114610f7457600080fd5b50565b600081359050610f8681610f60565b92915050565b600060208284031215610fa257610fa1610f56565b5b6000610fb084828501610f77565b91505092915050565b7f4e487b7100000000000000000000000000000000000000000000000000000000600052602160045260246000fd5b60038110610ff957610ff8610fb9565b5b50565b600081905061100a82610fe8565b919050565b600061101a82610ffc565b9050919050565b61102a8161100f565b82525050565b60006020820190506110456000830184611021565b92915050565b61105481610e32565b811461105f57600080fd5b50565b6000813590506110718161104b565b92915050565b60006020828403121561108d5761108c610f56565b5b600061109b84828501611062565b91505092915050565b6110ad81610d81565b81146110b857600080fd5b50565b6000813590506110ca816110a4565b92915050565b600080fd5b600080fd5b7f4e487b7100000000000000000000000000000000000000000000000000000000600052604160045260246000fd5b61111282610de8565b810181811067ffffffffffffffff82111715611131576111306110da565b5b80604052505050565b6000611144610f4c565b90506111508282611109565b919050565b600067ffffffffffffffff8211156111705761116f6110da565b5b61117982610de8565b9050602081019050919050565b82818337600083830152505050565b60006111a86111a384611155565b61113a565b9050828152602081018484840111156111c4576111c36110d5565b5b6111cf848285611186565b509392505050565b600082601f8301126111ec576111eb6110d0565b5b81356111fc848260208601611195565b91505092915050565b60008060006060848603121561121e5761121d610f56565b5b600061122c868287016110bb565b935050602084013567ffffffffffffffff81111561124d5761124c610f5b565b5b611259868287016111d7565b925050604084013567ffffffffffffffff81111561127a57611279610f5b565b5b611286868287016111d7565b9150509250925092565b600081519050919050565b600082825260208201905092915050565b6000819050602082019050919050565b60006112c88383610e5d565b60208301905092915050565b6000602082019050919050565b60006112ec82611290565b6112f6818561129b565b9350611301836112ac565b8060005b8381101561133257815161131988826112bc565b9750611324836112d4565b925050600181019050611305565b5085935050505092915050565b600060a0830160008301516113576000860182610d93565b506020830151848203602086015261136f8282610df9565b915050604083015184820360408601526113898282610df9565b915050606083015184820360608601526113a382826112e1565b91505060808301516113b86080860182610e78565b508091505092915050565b600060208201905081810360008301526113dd818461133f565b905092915050565b6000806000606084860312156113fe576113fd610f56565b5b600061140c86828701610f77565b935050602061141d86828701611062565b925050604061142e86828701611062565b9150509250925092565b7f4e487b7100000000000000000000000000000000000000000000000000000000600052602260045260246000fd5b6000600282049050600182168061147f57607f821691505b60208210810361149257611491611438565b5b50919050565b600081905092915050565b50565b60006114b3600083611498565b91506114be826114a3565b600082019050919050565b60006114d4826114a6565b9150819050919050565b600082825260208201905092915050565b7f4661696c656420746f2073656e64204574686572000000000000000000000000600082015250565b60006115256014836114de565b9150611530826114ef565b602082019050919050565b6000602082019050818103600083015261155481611518565b9050919050565b7f506172656e74206e6f7420696e2073797374656d2e0000000000000000000000600082015250565b60006115916015836114de565b915061159c8261155b565b602082019050919050565b600060208201905081810360008301526115c081611584565b9050919050565b7f4368696c6420616c726561647920696e2073797374656d2e0000000000000000600082015250565b60006115fd6018836114de565b9150611608826115c7565b602082019050919050565b6000602082019050818103600083015261162c816115f0565b9050919050565b60008190508160005260206000209050919050565b60006020601f8301049050919050565b600082821b905092915050565b6000600883026116957fffffffffffffffffffffffffffffffffffffffffffffffffffffffffffffffff82611658565b61169f8683611658565b95508019841693508086168417925050509392505050565b6000819050919050565b60006116dc6116d76116d284610e32565b6116b7565b610e32565b9050919050565b6000819050919050565b6116f6836116c1565b61170a611702826116e3565b848454611665565b825550505050565b600090565b61171f611712565b61172a8184846116ed565b505050565b5b8181101561174e57611743600082611717565b600181019050611730565b5050565b601f8211156117935761176481611633565b61176d84611648565b8101602085101561177c578190505b61179061178885611648565b83018261172f565b50505b505050565b600082821c905092915050565b60006117b660001984600802611798565b1980831691505092915050565b60006117cf83836117a5565b9150826002028217905092915050565b6117e882610da2565b67ffffffffffffffff811115611801576118006110da565b5b61180b8254611467565b611816828285611752565b600060209050601f8311600181146118495760008415611837578287015190505b61184185826117c3565b8655506118a9565b601f19841661185786611633565b60005b8281101561187f5784890151825560018201915060208501945060208101905061185a565b8683101561189c5784890151611898601f8916826117a5565b8355505b6001600288020188555050505b505050505050565b7f506172656e7420616c726561647920696e2073797374656d2e00000000000000600082015250565b60006118e76019836114de565b91506118f2826118b1565b602082019050919050565b60006020820190508181036000830152611916816118da565b905091905056fea26469706673582212205549b96cba2c001c7de932fe3dcd84a91d50b4d9d719fd66fb127621b0e22c2264736f6c63430008100033",
  "linkReferences": {},
  "deployedLinkReferences": {}
}