{
  "_format": "hh-sol-artifact-1",
  "contractName": "Eth_Inherit",
  "sourceName": "contracts/eth_inherit.sol",
  "abi": [
    {
      "inputs": [],
      "stateMutability": "nonpayable",
      "type": "constructor"
    },
    {
      "inputs": [
        {
          "internalType": "address payable",
          "name": "childAddress",
          "type": "address"
        },
        {
          "internalType": "string",
          "name": "name",
          "type": "string"
        },
        {
          "internalType": "string",
          "name": "surname",
          "type": "string"
        },
        {
          "internalType": "uint256",
          "name": "releaseTime",
          "type": "uint256"
        }
      ],
      "name": "addChild",
      "outputs": [],
      "stateMutability": "payable",
      "type": "function"
    },
    {
      "inputs": [
        {
          "internalType": "address payable",
          "name": "_address",
          "type": "address"
        },
        {
          "internalType": "string",
          "name": "name",
          "type": "string"
        },
        {
          "internalType": "string",
          "name": "surname",
          "type": "string"
        }
      ],
      "name": "addParent",
      "outputs": [],
      "stateMutability": "nonpayable",
      "type": "function"
    },
    {
      "inputs": [],
      "name": "childWithdraw",
      "outputs": [],
      "stateMutability": "nonpayable",
      "type": "function"
    },
    {
      "inputs": [
        {
          "internalType": "address",
          "name": "childAddress",
          "type": "address"
        }
      ],
      "name": "editChildInfo",
      "outputs": [],
      "stateMutability": "payable",
      "type": "function"
    },
    {
      "inputs": [],
      "name": "getAllParents",
      "outputs": [
        {
          "components": [
            {
              "internalType": "address payable",
              "name": "_address",
              "type": "address"
            },
            {
              "internalType": "string",
              "name": "name",
              "type": "string"
            },
            {
              "internalType": "string",
              "name": "surname",
              "type": "string"
            },
            {
              "internalType": "address[]",
              "name": "childrenAddresses",
              "type": "address[]"
            }
          ],
          "internalType": "struct Eth_Inherit.Parent[]",
          "name": "result",
          "type": "tuple[]"
        }
      ],
      "stateMutability": "view",
      "type": "function"
    },
    {
      "inputs": [],
      "name": "getChild",
      "outputs": [
        {
          "components": [
            {
              "internalType": "address payable",
              "name": "_address",
              "type": "address"
            },
            {
              "internalType": "string",
              "name": "name",
              "type": "string"
            },
            {
              "internalType": "string",
              "name": "surname",
              "type": "string"
            },
            {
              "internalType": "uint256",
              "name": "releaseTime",
              "type": "uint256"
            },
            {
              "internalType": "uint256",
              "name": "balance",
              "type": "uint256"
            },
            {
              "internalType": "address",
              "name": "parentAddress",
              "type": "address"
            }
          ],
          "internalType": "struct Eth_Inherit.Child",
          "name": "result",
          "type": "tuple"
        }
      ],
      "stateMutability": "view",
      "type": "function"
    },
    {
      "inputs": [
        {
          "internalType": "address",
          "name": "parentAddress",
          "type": "address"
        }
      ],
      "name": "getChildren",
      "outputs": [
        {
          "components": [
            {
              "internalType": "address payable",
              "name": "_address",
              "type": "address"
            },
            {
              "internalType": "string",
              "name": "name",
              "type": "string"
            },
            {
              "internalType": "string",
              "name": "surname",
              "type": "string"
            },
            {
              "internalType": "uint256",
              "name": "releaseTime",
              "type": "uint256"
            },
            {
              "internalType": "uint256",
              "name": "balance",
              "type": "uint256"
            },
            {
              "internalType": "address",
              "name": "parentAddress",
              "type": "address"
            }
          ],
          "internalType": "struct Eth_Inherit.Child[]",
          "name": "result",
          "type": "tuple[]"
        }
      ],
      "stateMutability": "view",
      "type": "function"
    },
    {
      "inputs": [],
      "name": "getChildrenAsParent",
      "outputs": [
        {
          "components": [
            {
              "internalType": "address payable",
              "name": "_address",
              "type": "address"
            },
            {
              "internalType": "string",
              "name": "name",
              "type": "string"
            },
            {
              "internalType": "string",
              "name": "surname",
              "type": "string"
            },
            {
              "internalType": "uint256",
              "name": "releaseTime",
              "type": "uint256"
            },
            {
              "internalType": "uint256",
              "name": "balance",
              "type": "uint256"
            },
            {
              "internalType": "address",
              "name": "parentAddress",
              "type": "address"
            }
          ],
          "internalType": "struct Eth_Inherit.Child[]",
          "name": "result",
          "type": "tuple[]"
        }
      ],
      "stateMutability": "view",
      "type": "function"
    },
    {
      "inputs": [],
      "name": "getParent",
      "outputs": [
        {
          "components": [
            {
              "internalType": "address payable",
              "name": "_address",
              "type": "address"
            },
            {
              "internalType": "string",
              "name": "name",
              "type": "string"
            },
            {
              "internalType": "string",
              "name": "surname",
              "type": "string"
            },
            {
              "internalType": "address[]",
              "name": "childrenAddresses",
              "type": "address[]"
            }
          ],
          "internalType": "struct Eth_Inherit.Parent",
          "name": "result",
          "type": "tuple"
        }
      ],
      "stateMutability": "view",
      "type": "function"
    },
    {
      "inputs": [
        {
          "internalType": "address",
          "name": "roleAddress",
          "type": "address"
        }
      ],
      "name": "getRole",
      "outputs": [
        {
          "internalType": "enum Eth_Inherit.Roles",
          "name": "",
          "type": "uint8"
        }
      ],
      "stateMutability": "view",
      "type": "function"
    },
    {
      "inputs": [
        {
          "internalType": "uint256",
          "name": "amount",
          "type": "uint256"
        }
      ],
      "name": "parentWithdraw",
      "outputs": [],
      "stateMutability": "nonpayable",
      "type": "function"
    }
  ],
  "bytecode": "0x608060405234801561001057600080fd5b50336000806101000a81548173ffffffffffffffffffffffffffffffffffffffff021916908373ffffffffffffffffffffffffffffffffffffffff16021790555061362b806100606000396000f3fe60806040526004361061009c5760003560e01c8063554ad90c11610064578063554ad90c146101795780636999fa451461019057806380f76021146101cd5780638aa7aac7146101f8578063baebf68414610214578063c8a4406e1461023d5761009c565b8063294e366a146100a15780632a43f338146100cc5780633f6b8592146100f757806344276733146101135780634d8259e214610150575b600080fd5b3480156100ad57600080fd5b506100b6610268565b6040516100c3919061276c565b60405180910390f35b3480156100d857600080fd5b506100e161081c565b6040516100ee919061281e565b60405180910390f35b610111600480360381019061010c9190612880565b610a5d565b005b34801561011f57600080fd5b5061013a60048036038101906101359190612880565b610a60565b6040516101479190612924565b60405180910390f35b34801561015c57600080fd5b506101776004803603810190610172919061296b565b610c07565b005b34801561018557600080fd5b5061018e610d2f565b005b34801561019c57600080fd5b506101b760048036038101906101b29190612880565b6110ec565b6040516101c4919061276c565b60405180910390f35b3480156101d957600080fd5b506101e261150b565b6040516101ef9190612ab8565b60405180910390f35b610212600480360381019061020d9190612c3b565b611a5a565b005b34801561022057600080fd5b5061023b60048036038101906102369190612cda565b611e1a565b005b34801561024957600080fd5b50610252612071565b60405161025f9190612e98565b60405180910390f35b60606001600381111561027e5761027d6128ad565b5b61028733610a60565b6003811115610299576102986128ad565b5b146102d9576040517f08c379a00000000000000000000000000000000000000000000000000000000081526004016102d090612f17565b60405180910390fd5b6000600160003373ffffffffffffffffffffffffffffffffffffffff1673ffffffffffffffffffffffffffffffffffffffff1681526020019081526020016000206040518060800160405290816000820160009054906101000a900473ffffffffffffffffffffffffffffffffffffffff1673ffffffffffffffffffffffffffffffffffffffff1673ffffffffffffffffffffffffffffffffffffffff16815260200160018201805461038b90612f66565b80601f01602080910402602001604051908101604052809291908181526020018280546103b790612f66565b80156104045780601f106103d957610100808354040283529160200191610404565b820191906000526020600020905b8154815290600101906020018083116103e757829003601f168201915b5050505050815260200160028201805461041d90612f66565b80601f016020809104026020016040519081016040528092919081815260200182805461044990612f66565b80156104965780601f1061046b57610100808354040283529160200191610496565b820191906000526020600020905b81548152906001019060200180831161047957829003601f168201915b505050505081526020016003820180548060200260200160405190810160405280929190818152602001828054801561052457602002820191906000526020600020905b8160009054906101000a900473ffffffffffffffffffffffffffffffffffffffff1673ffffffffffffffffffffffffffffffffffffffff16815260200190600101908083116104da575b505050505081525050905080606001515167ffffffffffffffff81111561054e5761054d612b10565b5b60405190808252806020026020018201604052801561058757816020015b610574612412565b81526020019060019003908161056c5790505b50915060005b8160600151518110156108175760026000836060015183815181106105b5576105b4612f97565b5b602002602001015173ffffffffffffffffffffffffffffffffffffffff1673ffffffffffffffffffffffffffffffffffffffff1681526020019081526020016000206040518060c00160405290816000820160009054906101000a900473ffffffffffffffffffffffffffffffffffffffff1673ffffffffffffffffffffffffffffffffffffffff1673ffffffffffffffffffffffffffffffffffffffff16815260200160018201805461066890612f66565b80601f016020809104026020016040519081016040528092919081815260200182805461069490612f66565b80156106e15780601f106106b6576101008083540402835291602001916106e1565b820191906000526020600020905b8154815290600101906020018083116106c457829003601f168201915b505050505081526020016002820180546106fa90612f66565b80601f016020809104026020016040519081016040528092919081815260200182805461072690612f66565b80156107735780601f1061074857610100808354040283529160200191610773565b820191906000526020600020905b81548152906001019060200180831161075657829003601f168201915b5050505050815260200160038201548152602001600482015481526020016005820160009054906101000a900473ffffffffffffffffffffffffffffffffffffffff1673ffffffffffffffffffffffffffffffffffffffff1673ffffffffffffffffffffffffffffffffffffffff16815250508382815181106107f9576107f8612f97565b5b6020026020010181905250808061080f90612ff5565b91505061058d565b505090565b610824612412565b6000600260003373ffffffffffffffffffffffffffffffffffffffff1673ffffffffffffffffffffffffffffffffffffffff1681526020019081526020016000209050806040518060c00160405290816000820160009054906101000a900473ffffffffffffffffffffffffffffffffffffffff1673ffffffffffffffffffffffffffffffffffffffff1673ffffffffffffffffffffffffffffffffffffffff1681526020016001820180546108d990612f66565b80601f016020809104026020016040519081016040528092919081815260200182805461090590612f66565b80156109525780601f1061092757610100808354040283529160200191610952565b820191906000526020600020905b81548152906001019060200180831161093557829003601f168201915b5050505050815260200160028201805461096b90612f66565b80601f016020809104026020016040519081016040528092919081815260200182805461099790612f66565b80156109e45780601f106109b9576101008083540402835291602001916109e4565b820191906000526020600020905b8154815290600101906020018083116109c757829003601f168201915b5050505050815260200160038201548152602001600482015481526020016005820160009054906101000a900473ffffffffffffffffffffffffffffffffffffffff1673ffffffffffffffffffffffffffffffffffffffff1673ffffffffffffffffffffffffffffffffffffffff168152505091505090565b50565b60008060009054906101000a900473ffffffffffffffffffffffffffffffffffffffff1673ffffffffffffffffffffffffffffffffffffffff168273ffffffffffffffffffffffffffffffffffffffff1603610abf5760009050610c02565b600073ffffffffffffffffffffffffffffffffffffffff16600160008473ffffffffffffffffffffffffffffffffffffffff1673ffffffffffffffffffffffffffffffffffffffff16815260200190815260200160002060000160009054906101000a900473ffffffffffffffffffffffffffffffffffffffff1673ffffffffffffffffffffffffffffffffffffffff1614610b5e5760019050610c02565b600073ffffffffffffffffffffffffffffffffffffffff16600260008473ffffffffffffffffffffffffffffffffffffffff1673ffffffffffffffffffffffffffffffffffffffff16815260200190815260200160002060000160009054906101000a900473ffffffffffffffffffffffffffffffffffffffff1673ffffffffffffffffffffffffffffffffffffffff1614610bfd5760029050610c02565b600390505b919050565b600033905060016003811115610c2057610c1f6128ad565b5b610c2982610a60565b6003811115610c3b57610c3a6128ad565b5b14610c7b576040517f08c379a0000000000000000000000000000000000000000000000000000000008152600401610c7290613089565b60405180910390fd5b6000808273ffffffffffffffffffffffffffffffffffffffff1684604051610ca2906130da565b60006040518083038185875af1925050503d8060008114610cdf576040519150601f19603f3d011682016040523d82523d6000602084013e610ce4565b606091505b509150915081610d29576040517f08c379a0000000000000000000000000000000000000000000000000000000008152600401610d209061313b565b60405180910390fd5b50505050565b600033905060026003811115610d4857610d476128ad565b5b610d5182610a60565b6003811115610d6357610d626128ad565b5b14610da3576040517f08c379a0000000000000000000000000000000000000000000000000000000008152600401610d9a906131a7565b60405180910390fd5b6000600260008373ffffffffffffffffffffffffffffffffffffffff1673ffffffffffffffffffffffffffffffffffffffff16815260200190815260200160002090506001156110e8576000808373ffffffffffffffffffffffffffffffffffffffff168360040154604051610e18906130da565b60006040518083038185875af1925050503d8060008114610e55576040519150601f19603f3d011682016040523d82523d6000602084013e610e5a565b606091505b509150915081610e9f576040517f08c379a0000000000000000000000000000000000000000000000000000000008152600401610e969061313b565b60405180910390fd5b60008360050160009054906101000a900473ffffffffffffffffffffffffffffffffffffffff1690506000600160008373ffffffffffffffffffffffffffffffffffffffff1673ffffffffffffffffffffffffffffffffffffffff168152602001908152602001600020600301905060005b8180549050811015611022578673ffffffffffffffffffffffffffffffffffffffff16828281548110610f4757610f46612f97565b5b9060005260206000200160009054906101000a900473ffffffffffffffffffffffffffffffffffffffff1673ffffffffffffffffffffffffffffffffffffffff160361100f57600160008473ffffffffffffffffffffffffffffffffffffffff1673ffffffffffffffffffffffffffffffffffffffff1681526020019081526020016000206003018181548110610fe157610fe0612f97565b5b9060005260206000200160006101000a81549073ffffffffffffffffffffffffffffffffffffffff02191690555b808061101a90612ff5565b915050610f11565b50600260008773ffffffffffffffffffffffffffffffffffffffff1673ffffffffffffffffffffffffffffffffffffffff168152602001908152602001600020600080820160006101000a81549073ffffffffffffffffffffffffffffffffffffffff021916905560018201600061109a9190612474565b6002820160006110aa9190612474565b600382016000905560048201600090556005820160006101000a81549073ffffffffffffffffffffffffffffffffffffffff02191690555050505050505b5050565b606060006003811115611102576111016128ad565b5b61110b33610a60565b600381111561111d5761111c6128ad565b5b1461115d576040517f08c379a000000000000000000000000000000000000000000000000000000000815260040161115490613213565b60405180910390fd5b6000600160008473ffffffffffffffffffffffffffffffffffffffff1673ffffffffffffffffffffffffffffffffffffffff16815260200190815260200160002060030180548060200260200160405190810160405280929190818152602001828054801561122157602002820191906000526020600020905b8160009054906101000a900473ffffffffffffffffffffffffffffffffffffffff1673ffffffffffffffffffffffffffffffffffffffff16815260200190600101908083116111d7575b50505050509050805167ffffffffffffffff81111561124357611242612b10565b5b60405190808252806020026020018201604052801561127c57816020015b611269612412565b8152602001906001900390816112615790505b50915060005b815181101561150457600260008383815181106112a2576112a1612f97565b5b602002602001015173ffffffffffffffffffffffffffffffffffffffff1673ffffffffffffffffffffffffffffffffffffffff1681526020019081526020016000206040518060c00160405290816000820160009054906101000a900473ffffffffffffffffffffffffffffffffffffffff1673ffffffffffffffffffffffffffffffffffffffff1673ffffffffffffffffffffffffffffffffffffffff16815260200160018201805461135590612f66565b80601f016020809104026020016040519081016040528092919081815260200182805461138190612f66565b80156113ce5780601f106113a3576101008083540402835291602001916113ce565b820191906000526020600020905b8154815290600101906020018083116113b157829003601f168201915b505050505081526020016002820180546113e790612f66565b80601f016020809104026020016040519081016040528092919081815260200182805461141390612f66565b80156114605780601f1061143557610100808354040283529160200191611460565b820191906000526020600020905b81548152906001019060200180831161144357829003601f168201915b5050505050815260200160038201548152602001600482015481526020016005820160009054906101000a900473ffffffffffffffffffffffffffffffffffffffff1673ffffffffffffffffffffffffffffffffffffffff1673ffffffffffffffffffffffffffffffffffffffff16815250508382815181106114e6576114e5612f97565b5b602002602001018190525080806114fc90612ff5565b915050611282565b5050919050565b6115136124b4565b60016003811115611527576115266128ad565b5b61153033610a60565b6003811115611542576115416128ad565b5b036117a057600160003373ffffffffffffffffffffffffffffffffffffffff1673ffffffffffffffffffffffffffffffffffffffff1681526020019081526020016000206040518060800160405290816000820160009054906101000a900473ffffffffffffffffffffffffffffffffffffffff1673ffffffffffffffffffffffffffffffffffffffff1673ffffffffffffffffffffffffffffffffffffffff1681526020016001820180546115f790612f66565b80601f016020809104026020016040519081016040528092919081815260200182805461162390612f66565b80156116705780601f1061164557610100808354040283529160200191611670565b820191906000526020600020905b81548152906001019060200180831161165357829003601f168201915b5050505050815260200160028201805461168990612f66565b80601f01602080910402602001604051908101604052809291908181526020018280546116b590612f66565b80156117025780601f106116d757610100808354040283529160200191611702565b820191906000526020600020905b8154815290600101906020018083116116e557829003601f168201915b505050505081526020016003820180548060200260200160405190810160405280929190818152602001828054801561179057602002820191906000526020600020905b8160009054906101000a900473ffffffffffffffffffffffffffffffffffffffff1673ffffffffffffffffffffffffffffffffffffffff1681526020019060010190808311611746575b5050505050815250509050611a57565b60016000600260003373ffffffffffffffffffffffffffffffffffffffff1673ffffffffffffffffffffffffffffffffffffffff16815260200190815260200160002060050160009054906101000a900473ffffffffffffffffffffffffffffffffffffffff1673ffffffffffffffffffffffffffffffffffffffff1673ffffffffffffffffffffffffffffffffffffffff1681526020019081526020016000206040518060800160405290816000820160009054906101000a900473ffffffffffffffffffffffffffffffffffffffff1673ffffffffffffffffffffffffffffffffffffffff1673ffffffffffffffffffffffffffffffffffffffff1681526020016001820180546118b290612f66565b80601f01602080910402602001604051908101604052809291908181526020018280546118de90612f66565b801561192b5780601f106119005761010080835404028352916020019161192b565b820191906000526020600020905b81548152906001019060200180831161190e57829003601f168201915b5050505050815260200160028201805461194490612f66565b80601f016020809104026020016040519081016040528092919081815260200182805461197090612f66565b80156119bd5780601f10611992576101008083540402835291602001916119bd565b820191906000526020600020905b8154815290600101906020018083116119a057829003601f168201915b5050505050815260200160038201805480602002602001604051908101604052809291908181526020018280548015611a4b57602002820191906000526020600020905b8160009054906101000a900473ffffffffffffffffffffffffffffffffffffffff1673ffffffffffffffffffffffffffffffffffffffff1681526020019060010190808311611a01575b50505050508152505090505b90565b60016003811115611a6e57611a6d6128ad565b5b611a7733610a60565b6003811115611a8957611a886128ad565b5b14611ac9576040517f08c379a0000000000000000000000000000000000000000000000000000000008152600401611ac090612f17565b60405180910390fd5b6000339050600073ffffffffffffffffffffffffffffffffffffffff16600160008373ffffffffffffffffffffffffffffffffffffffff1673ffffffffffffffffffffffffffffffffffffffff16815260200190815260200160002060000160009054906101000a900473ffffffffffffffffffffffffffffffffffffffff1673ffffffffffffffffffffffffffffffffffffffff1614611b9f576040517f08c379a0000000000000000000000000000000000000000000000000000000008152600401611b969061327f565b60405180910390fd5b600073ffffffffffffffffffffffffffffffffffffffff16600260008773ffffffffffffffffffffffffffffffffffffffff1673ffffffffffffffffffffffffffffffffffffffff16815260200190815260200160002060000160009054906101000a900473ffffffffffffffffffffffffffffffffffffffff1673ffffffffffffffffffffffffffffffffffffffff1603611c70576040517f08c379a0000000000000000000000000000000000000000000000000000000008152600401611c67906132eb565b60405180910390fd5b6000600260008773ffffffffffffffffffffffffffffffffffffffff1673ffffffffffffffffffffffffffffffffffffffff1681526020019081526020016000209050858160000160006101000a81548173ffffffffffffffffffffffffffffffffffffffff021916908373ffffffffffffffffffffffffffffffffffffffff16021790555084816001019081611d0791906134b7565b5083816002019081611d1991906134b7565b50818160050160006101000a81548173ffffffffffffffffffffffffffffffffffffffff021916908373ffffffffffffffffffffffffffffffffffffffff160217905550828160030181905550348160040181905550600160008373ffffffffffffffffffffffffffffffffffffffff1673ffffffffffffffffffffffffffffffffffffffff168152602001908152602001600020600301869080600181540180825580915050600190039060005260206000200160009091909190916101000a81548173ffffffffffffffffffffffffffffffffffffffff021916908373ffffffffffffffffffffffffffffffffffffffff160217905550505050505050565b60026003811115611e2e57611e2d6128ad565b5b611e3733610a60565b6003811115611e4957611e486128ad565b5b14158015611e84575060016003811115611e6657611e656128ad565b5b611e6f33610a60565b6003811115611e8157611e806128ad565b5b14155b611e8d57600080fd5b6000600160008573ffffffffffffffffffffffffffffffffffffffff1673ffffffffffffffffffffffffffffffffffffffff1681526020019081526020016000209050600073ffffffffffffffffffffffffffffffffffffffff16600160008673ffffffffffffffffffffffffffffffffffffffff1673ffffffffffffffffffffffffffffffffffffffff16815260200190815260200160002060000160009054906101000a900473ffffffffffffffffffffffffffffffffffffffff1673ffffffffffffffffffffffffffffffffffffffff1603611fa1576040517f08c379a0000000000000000000000000000000000000000000000000000000008152600401611f98906135d5565b60405180910390fd5b838160000160006101000a81548173ffffffffffffffffffffffffffffffffffffffff021916908373ffffffffffffffffffffffffffffffffffffffff16021790555082816001019081611ff591906134b7565b508181600201908161200791906134b7565b506003849080600181540180825580915050600190039060005260206000200160009091909190916101000a81548173ffffffffffffffffffffffffffffffffffffffff021916908373ffffffffffffffffffffffffffffffffffffffff16021790555050505050565b606060006003811115612087576120866128ad565b5b61209033610a60565b60038111156120a2576120a16128ad565b5b146120e2576040517f08c379a00000000000000000000000000000000000000000000000000000000081526004016120d990613213565b60405180910390fd5b60038054905067ffffffffffffffff81111561210157612100612b10565b5b60405190808252806020026020018201604052801561213a57816020015b6121276124b4565b81526020019060019003908161211f5790505b50905060005b60038054905081101561240e57600160006003838154811061216557612164612f97565b5b9060005260206000200160009054906101000a900473ffffffffffffffffffffffffffffffffffffffff1673ffffffffffffffffffffffffffffffffffffffff1673ffffffffffffffffffffffffffffffffffffffff1681526020019081526020016000206040518060800160405290816000820160009054906101000a900473ffffffffffffffffffffffffffffffffffffffff1673ffffffffffffffffffffffffffffffffffffffff1673ffffffffffffffffffffffffffffffffffffffff16815260200160018201805461223b90612f66565b80601f016020809104026020016040519081016040528092919081815260200182805461226790612f66565b80156122b45780601f10612289576101008083540402835291602001916122b4565b820191906000526020600020905b81548152906001019060200180831161229757829003601f168201915b505050505081526020016002820180546122cd90612f66565b80601f01602080910402602001604051908101604052809291908181526020018280546122f990612f66565b80156123465780601f1061231b57610100808354040283529160200191612346565b820191906000526020600020905b81548152906001019060200180831161232957829003601f168201915b50505050508152602001600382018054806020026020016040519081016040528092919081815260200182805480156123d457602002820191906000526020600020905b8160009054906101000a900473ffffffffffffffffffffffffffffffffffffffff1673ffffffffffffffffffffffffffffffffffffffff168152602001906001019080831161238a575b5050505050815250508282815181106123f0576123ef612f97565b5b6020026020010181905250808061240690612ff5565b915050612140565b5090565b6040518060c00160405280600073ffffffffffffffffffffffffffffffffffffffff16815260200160608152602001606081526020016000815260200160008152602001600073ffffffffffffffffffffffffffffffffffffffff1681525090565b50805461248090612f66565b6000825580601f1061249257506124b1565b601f0160209004906000526020600020908101906124b091906124f2565b5b50565b6040518060800160405280600073ffffffffffffffffffffffffffffffffffffffff1681526020016060815260200160608152602001606081525090565b5b8082111561250b5760008160009055506001016124f3565b5090565b600081519050919050565b600082825260208201905092915050565b6000819050602082019050919050565b600073ffffffffffffffffffffffffffffffffffffffff82169050919050565b60006125668261253b565b9050919050565b6125768161255b565b82525050565b600081519050919050565b600082825260208201905092915050565b60005b838110156125b657808201518184015260208101905061259b565b60008484015250505050565b6000601f19601f8301169050919050565b60006125de8261257c565b6125e88185612587565b93506125f8818560208601612598565b612601816125c2565b840191505092915050565b6000819050919050565b61261f8161260c565b82525050565b60006126308261253b565b9050919050565b61264081612625565b82525050565b600060c08301600083015161265e600086018261256d565b506020830151848203602086015261267682826125d3565b9150506040830151848203604086015261269082826125d3565b91505060608301516126a56060860182612616565b5060808301516126b86080860182612616565b5060a08301516126cb60a0860182612637565b508091505092915050565b60006126e28383612646565b905092915050565b6000602082019050919050565b60006127028261250f565b61270c818561251a565b93508360208202850161271e8561252b565b8060005b8581101561275a578484038952815161273b85826126d6565b9450612746836126ea565b925060208a01995050600181019050612722565b50829750879550505050505092915050565b6000602082019050818103600083015261278681846126f7565b905092915050565b600060c0830160008301516127a6600086018261256d565b50602083015184820360208601526127be82826125d3565b915050604083015184820360408601526127d882826125d3565b91505060608301516127ed6060860182612616565b5060808301516128006080860182612616565b5060a083015161281360a0860182612637565b508091505092915050565b60006020820190508181036000830152612838818461278e565b905092915050565b6000604051905090565b600080fd5b600080fd5b61285d81612625565b811461286857600080fd5b50565b60008135905061287a81612854565b92915050565b6000602082840312156128965761289561284a565b5b60006128a48482850161286b565b91505092915050565b7f4e487b7100000000000000000000000000000000000000000000000000000000600052602160045260246000fd5b600481106128ed576128ec6128ad565b5b50565b60008190506128fe826128dc565b919050565b600061290e826128f0565b9050919050565b61291e81612903565b82525050565b60006020820190506129396000830184612915565b92915050565b6129488161260c565b811461295357600080fd5b50565b6000813590506129658161293f565b92915050565b6000602082840312156129815761298061284a565b5b600061298f84828501612956565b91505092915050565b600081519050919050565b600082825260208201905092915050565b6000819050602082019050919050565b60006129d08383612637565b60208301905092915050565b6000602082019050919050565b60006129f482612998565b6129fe81856129a3565b9350612a09836129b4565b8060005b83811015612a3a578151612a2188826129c4565b9750612a2c836129dc565b925050600181019050612a0d565b5085935050505092915050565b6000608083016000830151612a5f600086018261256d565b5060208301518482036020860152612a7782826125d3565b91505060408301518482036040860152612a9182826125d3565b91505060608301518482036060860152612aab82826129e9565b9150508091505092915050565b60006020820190508181036000830152612ad28184612a47565b905092915050565b612ae38161255b565b8114612aee57600080fd5b50565b600081359050612b0081612ada565b92915050565b600080fd5b600080fd5b7f4e487b7100000000000000000000000000000000000000000000000000000000600052604160045260246000fd5b612b48826125c2565b810181811067ffffffffffffffff82111715612b6757612b66612b10565b5b80604052505050565b6000612b7a612840565b9050612b868282612b3f565b919050565b600067ffffffffffffffff821115612ba657612ba5612b10565b5b612baf826125c2565b9050602081019050919050565b82818337600083830152505050565b6000612bde612bd984612b8b565b612b70565b905082815260208101848484011115612bfa57612bf9612b0b565b5b612c05848285612bbc565b509392505050565b600082601f830112612c2257612c21612b06565b5b8135612c32848260208601612bcb565b91505092915050565b60008060008060808587031215612c5557612c5461284a565b5b6000612c6387828801612af1565b945050602085013567ffffffffffffffff811115612c8457612c8361284f565b5b612c9087828801612c0d565b935050604085013567ffffffffffffffff811115612cb157612cb061284f565b5b612cbd87828801612c0d565b9250506060612cce87828801612956565b91505092959194509250565b600080600060608486031215612cf357612cf261284a565b5b6000612d0186828701612af1565b935050602084013567ffffffffffffffff811115612d2257612d2161284f565b5b612d2e86828701612c0d565b925050604084013567ffffffffffffffff811115612d4f57612d4e61284f565b5b612d5b86828701612c0d565b9150509250925092565b600081519050919050565b600082825260208201905092915050565b6000819050602082019050919050565b6000608083016000830151612da9600086018261256d565b5060208301518482036020860152612dc182826125d3565b91505060408301518482036040860152612ddb82826125d3565b91505060608301518482036060860152612df582826129e9565b9150508091505092915050565b6000612e0e8383612d91565b905092915050565b6000602082019050919050565b6000612e2e82612d65565b612e388185612d70565b935083602082028501612e4a85612d81565b8060005b85811015612e865784840389528151612e678582612e02565b9450612e7283612e16565b925060208a01995050600181019050612e4e565b50829750879550505050505092915050565b60006020820190508181036000830152612eb28184612e23565b905092915050565b600082825260208201905092915050565b7f596f7520617265206e6f74206120706172656e742e0000000000000000000000600082015250565b6000612f01601583612eba565b9150612f0c82612ecb565b602082019050919050565b60006020820190508181036000830152612f3081612ef4565b9050919050565b7f4e487b7100000000000000000000000000000000000000000000000000000000600052602260045260246000fd5b60006002820490506001821680612f7e57607f821691505b602082108103612f9157612f90612f37565b5b50919050565b7f4e487b7100000000000000000000000000000000000000000000000000000000600052603260045260246000fd5b7f4e487b7100000000000000000000000000000000000000000000000000000000600052601160045260246000fd5b60006130008261260c565b91507fffffffffffffffffffffffffffffffffffffffffffffffffffffffffffffffff820361303257613031612fc6565b5b600182019050919050565b7f55736572206e6f74206120706172656e742e0000000000000000000000000000600082015250565b6000613073601283612eba565b915061307e8261303d565b602082019050919050565b600060208201905081810360008301526130a281613066565b9050919050565b600081905092915050565b50565b60006130c46000836130a9565b91506130cf826130b4565b600082019050919050565b60006130e5826130b7565b9150819050919050565b7f4661696c656420746f2073656e64204574686572000000000000000000000000600082015250565b6000613125601483612eba565b9150613130826130ef565b602082019050919050565b6000602082019050818103600083015261315481613118565b9050919050565b7f55736572206e6f742061206368696c642e000000000000000000000000000000600082015250565b6000613191601183612eba565b915061319c8261315b565b602082019050919050565b600060208201905081810360008301526131c081613184565b9050919050565b7f596f7520617265206e6f7420616e2061646d696e2e0000000000000000000000600082015250565b60006131fd601583612eba565b9150613208826131c7565b602082019050919050565b6000602082019050818103600083015261322c816131f0565b9050919050565b7f506172656e74206e6f7420696e2073797374656d2e0000000000000000000000600082015250565b6000613269601583612eba565b915061327482613233565b602082019050919050565b600060208201905081810360008301526132988161325c565b9050919050565b7f4368696c6420616c726561647920696e2073797374656d2e0000000000000000600082015250565b60006132d5601883612eba565b91506132e08261329f565b602082019050919050565b60006020820190508181036000830152613304816132c8565b9050919050565b60008190508160005260206000209050919050565b60006020601f8301049050919050565b600082821b905092915050565b60006008830261336d7fffffffffffffffffffffffffffffffffffffffffffffffffffffffffffffffff82613330565b6133778683613330565b95508019841693508086168417925050509392505050565b6000819050919050565b60006133b46133af6133aa8461260c565b61338f565b61260c565b9050919050565b6000819050919050565b6133ce83613399565b6133e26133da826133bb565b84845461333d565b825550505050565b600090565b6133f76133ea565b6134028184846133c5565b505050565b5b818110156134265761341b6000826133ef565b600181019050613408565b5050565b601f82111561346b5761343c8161330b565b61344584613320565b81016020851015613454578190505b61346861346085613320565b830182613407565b50505b505050565b600082821c905092915050565b600061348e60001984600802613470565b1980831691505092915050565b60006134a7838361347d565b9150826002028217905092915050565b6134c08261257c565b67ffffffffffffffff8111156134d9576134d8612b10565b5b6134e38254612f66565b6134ee82828561342a565b600060209050601f831160018114613521576000841561350f578287015190505b613519858261349b565b865550613581565b601f19841661352f8661330b565b60005b8281101561355757848901518255600182019150602085019450602081019050613532565b868310156135745784890151613570601f89168261347d565b8355505b6001600288020188555050505b505050505050565b7f506172656e7420616c726561647920696e2073797374656d2e00000000000000600082015250565b60006135bf601983612eba565b91506135ca82613589565b602082019050919050565b600060208201905081810360008301526135ee816135b2565b905091905056fea26469706673582212200e3a9822a4135f72ebc2c01ceab6cce507dab6cd68e18b56053cc683265902fa64736f6c63430008100033",
  "linkReferences": {},
  "deployedLinkReferences": {}
}